:100000000EC028C027C026C025C024C023C022C0DF
:1000100021C020C01FC01EC01DC01CC01BC0112499
:100020001FBECFE5D2E0DEBFCDBF10E0A0E6B0E05E
:10003000EAE3F2E002C005900D92A036B107D9F7CD
:1000400010E0A0E6B0E001C01D92A136B107E1F7D3
:1000500002D0F1C0D5CF9F92AF92BF92CF92DF92E4
:10006000EF92FF920F931F93CF93DF938FE387BBA2
:1000700080E288BB9FB7F89480E886BD16BC9FBF1E
:1000800090906000AA24BB246501EE24FF24870120
:10009000C1E0D0E0CE01AA2797FDA095BA2FE80EC7
:1000A000F91E0A1F1B1F80E0E81680E4F80684E0B2
:1000B000080780E018075CF0CE01D7FF03C09095D9
:1000C00081959F4FCC27DD27C81BD90B0EC081E03F
:1000D000E81680ECF8068BEF08078FEF18072CF472
:1000E000D7FF03C0D095C195DF4FA801970164E009
:1000F00055954795379527956A95D1F71E141F0496
:10010000100611067CF4CA01B9017CD057E0959520
:100110008795779567955A95D1F7A60EB71EC81E95
:10012000D91E0EC0CA01B9016DD047E095958795DB
:10013000779567954A95D1F7A61AB70AC80AD90ADA
:10014000C601AA27BB279770292F332727FD3A9589
:100150002115310521F4982F50E040E031C02130C5
:10016000310529F4809550E040E09FEF2AC022300D
:10017000310521F4482F50E09FEF07C023303105AF
:1001800031F4982F909550E04FEF80E01AC0243062
:10019000310519F4582F4FEF06C02530310529F4E9
:1001A000482F40955FEF90E0F0CF2630310521F4E5
:1001B0005FEF40E090E005C0582F509540E090E0A0
:1001C0008FEF90FA37F991FA36F992FA35F993FAF6
:1001D00034F994FA33F995FA32F996FA31F997FA33
:1001E00030F928B3207F381708F42160391708F454
:1001F0002260341708F42460351708F4286028BBFF
:10020000939448CFFF27EE27BB27AA2760FF04C09F
:10021000A20FB31FE41FF51F220F331F441F551FEA
:10022000969587957795679589F70097760771F783
:0A023000CF01BD010895F894FFCF3F
:00000001FF
